{
  "transactions": [
    {
      "hash": "0x9ecf4d34ffb73c60b9396c37d77a66f192d3e6f6a7d29c6e975334404d35e3e6",
      "transactionType": "CREATE",
      "contractName": "Counter",
      "contractAddress": "0xcd9cfaeb0afdc5206f4b74c02d85771febab737a",
      "function": null,
      "arguments": null,
      "transaction": {
        "from": "0x8c9d2ed582846497b454cafa67160f679af90a2f",
        "gas": "0x1ba95",
        "value": "0x0",
        "input": "0x60808060405234601357609c908160188239f35b5f80fdfe60808060405260043610156011575f80fd5b5f3560e01c9081633fb5c1cb1460865781638381f58a14606f575063d09de08a146039575f80fd5b34606b575f366003190112606b575f545f1981146057576001015f55005b634e487b7160e01b5f52601160045260245ffd5b5f80fd5b34606b575f366003190112606b576020905f548152f35b34606b576020366003190112606b576004355f5500",
        "nonce": "0x67",
        "chainId": "0xaa36a7"
      },
      "additionalContracts": [],
      "isFixedGasLimit": false
    },
    {
      "hash": "0x60512f1cc64f67ca354f13e8f050351249036c5e433379064ee59b51278e36da",
      "transactionType": "CALL",
      "contractName": "Counter",
      "contractAddress": "0xcd9cfaeb0afdc5206f4b74c02d85771febab737a",
      "function": "setNumber(uint256)",
      "arguments": [
        "7"
      ],
      "transaction": {
        "from": "0x8c9d2ed582846497b454cafa67160f679af90a2f",
        "to": "0xcd9cfaeb0afdc5206f4b74c02d85771febab737a",
        "gas": "0xea61",
        "value": "0x0",
        "input": "0x3fb5c1cb0000000000000000000000000000000000000000000000000000000000000007",
        "nonce": "0x68",
        "chainId": "0xaa36a7"
      },
      "additionalContracts": [],
      "isFixedGasLimit": false
    }
  ],
  "receipts": [
    {
      "status": "0x1",
      "cumulativeGasUsed": "0x1534f67",
      "logs": [],
      "logsBloom": "0x00000000000000000000000000000000000000000000000000000000000000000000000000000000000000000000000000000000000000000000000000000000000000000000000000000000000000000000000000000000000000000000000000000000000000000000000000000000000000000000000000000000000000000000000000000000000000000000000000000000000000000000000000000000000000000000000000000000000000000000000000000000000000000000000000000000000000000000000000000000000000000000000000000000000000000000000000000000000000000000000000000000000000000000000000000000",
      "type": "0x2",
      "transactionHash": "0x9ecf4d34ffb73c60b9396c37d77a66f192d3e6f6a7d29c6e975334404d35e3e6",
      "transactionIndex": "0x93",
      "blockHash": "0xde3d85b27379975d03e7be100fd2b4c015c511b3cee633aa18cecdeabe555453",
      "blockNumber": "0x86dbe1",
      "gasUsed": "0x15473",
      "effectiveGasPrice": "0x3d2fde",
      "from": "0x8c9d2ed582846497b454cafa67160f679af90a2f",
      "to": null,
      "contractAddress": "0xcd9cfaeb0afdc5206f4b74c02d85771febab737a"
    },
    {
      "status": "0x1",
      "cumulativeGasUsed": "0x153f917",
      "logs": [],
      "logsBloom": "0x00000000000000000000000000000000000000000000000000000000000000000000000000000000000000000000000000000000000000000000000000000000000000000000000000000000000000000000000000000000000000000000000000000000000000000000000000000000000000000000000000000000000000000000000000000000000000000000000000000000000000000000000000000000000000000000000000000000000000000000000000000000000000000000000000000000000000000000000000000000000000000000000000000000000000000000000000000000000000000000000000000000000000000000000000000000",
      "type": "0x2",
      "transactionHash": "0x60512f1cc64f67ca354f13e8f050351249036c5e433379064ee59b51278e36da",
      "transactionIndex": "0x94",
      "blockHash": "0xde3d85b27379975d03e7be100fd2b4c015c511b3cee633aa18cecdeabe555453",
      "blockNumber": "0x86dbe1",
      "gasUsed": "0xa9b0",
      "effectiveGasPrice": "0x3d2fde",
      "from": "0x8c9d2ed582846497b454cafa67160f679af90a2f",
      "to": "0xcd9cfaeb0afdc5206f4b74c02d85771febab737a",
      "contractAddress": null
    }
  ],
  "libraries": [],
  "pending": [],
  "returns": {},
  "timestamp": 1753432181235,
  "chain": 11155111,
  "commit": "2828cfb"
}